:2000000031880321AC01CDA2013E003208023E043205023A05024FCD1BE23E013207023EDF
:20002000003206023A07024FCD1EE23A06024FCD21E2010902CD24E2CD2AE2E601205A3A73
:200040000602FEFF28063C32060218DF3A0702FEFF28263C3207020E2ECD09F03A08023C79
:20006000FE50280532080218B6AF3208020E0DCD09F00E0ACD09F018A6AF3208023A050267
:200080003CFE08280B32050221ED01CDA201188321D301CDA201C333F021FB01CDA201C3FD
:2000A00033F07EA7C84FCD09F02318F60D0A0A466F726D6174696E67203420766972747574
:2000C000616C206469736B730D0A6469736B20310D0A000D0A466F726D617474696E672099
:2000E000636F6D706C657465640D0D0A000D0A4E657874206469736B0D0A000D0A65727227
:050100006F720D0A0002
:20010500E5E5E5E5E5E5E5E5E5E5E5E5E5E5E5E5E5E5E5E5E5E5E5E5E5E5E5E5E5E5E5E53A
:20012500E5E5E5E5E5E5E5E5E5E5E5E5E5E5E5E5E5E5E5E5E5E5E5E5E5E5E5E5E5E5E5E51A
:20014500E5E5E5E5E5E5E5E5E5E5E5E5E5E5E5E5E5E5E5E5E5E5E5E5E5E5E5E5E5E5E5E5FA
:20016500E5E5E5E5E5E5E5E5E5E5E5E5E5E5E5E5E5E5E5E5E5E5E5E5E5E5E5E5E5E5E5E5DA
:00000001FF
