:20000000317F0321AB01CDA0013E0032FF013E0432FC013AFC014FCD1BE23E0132FE013E13
:200020000032FD013AFE014FCD1EE23AFD014FCD21E2010002CD24E2CD2AE23AFD01FE3FC0
:20004000CA4A013C32FD01C32B013AFE01FEFFCA7E013C32FE013E2E4FCD09F03AFF013C4D
:20006000FE50CA6B0132FF01C31F01AF32FF013E0D4FCD09F03E0A4FCD09F0C31F01AF3285
:20008000FF013AFC013CFE08CA970132FC0121EE01CDA001C3130121D401CDA001C333F0B7
:2000A0007EA7C84FCD09F023C3A0010D0A0A466F726D6174696572652034207669727475DA
:2000C000656C6C65204469736B0D0A4469736B20310D0A000D0A466F726D61746965727594
:1C00E0006E67206265656E6465740D0D0A000D0A6E657874204469736B0D0A007C
:2000FC00E5E5E5E5E5E5E5E5E5E5E5E5E5E5E5E5E5E5E5E5E5E5E5E5E5E5E5E5E5E5E5E544
:20011C00E5E5E5E5E5E5E5E5E5E5E5E5E5E5E5E5E5E5E5E5E5E5E5E5E5E5E5E5E5E5E5E523
:20013C00E5E5E5E5E5E5E5E5E5E5E5E5E5E5E5E5E5E5E5E5E5E5E5E5E5E5E5E5E5E5E5E503
:20015C00E5E5E5E5E5E5E5E5E5E5E5E5E5E5E5E5E5E5E5E5E5E5E5E5E5E5E5E5E5E5E5E5E3
:00000001FF
