:2000000031210421D301CDC901CD03F0FE03CAB901FE0D20F4216402CDC9013E0032A10269
:200020003E04329E023A9E024FCD1BE23E0132A002CD12F0A72807CD03F0FE03287B3E005F
:20004000329F023AA0024FCD1EE23A9F024FCD21E201A202CD24E2CD2AE2E60120633A9F47
:2000600002FEFF28063C329F0218DF3AA002FEFF28263C32A0020E2ECD09F03AA1023CFEFD
:2000800050280532A10218A9AF32A1020E0DCD09F00E0ACD09F01899AF32A1023A9E023CBF
:2000A000FE08280C329E02215602CDC901C32501216F02CDC901C333F0219202CDC90118C8
:2000C000F5218802CDC90118ED7EA7C84FCD09F02318F60D0A0A4E464F524D2D43462056E2
:2000E000312E3120323630393037202D20466F726D6174696E672034207669727475616C89
:20010000206469736B7320452E2E480D0A416C6C2064617461206F6E204944452F434620E7
:2001200077696C6C206265206572617365642121210D0A507265737320454E5445522074D3
:200140006F2070726F63656564206F72204374726C2D430D0A000D0A4E65787420646973DB
:200160006B0D0A000D0A4469736B20310D0A000D0A466F726D617474696E6720636F6D70F2
:1E0180006C657465640D0A000D0A4572726F720D0A000D0A41626F727465640D0A0015
:20019E00E5E5E5E5E5E5E5E5E5E5E5E5E5E5E5E5E5E5E5E5E5E5E5E5E5E5E5E5E5E5E5E5A1
:2001BE00E5E5E5E5E5E5E5E5E5E5E5E5E5E5E5E5E5E5E5E5E5E5E5E5E5E5E5E5E5E5E5E581
:2001DE00E5E5E5E5E5E5E5E5E5E5E5E5E5E5E5E5E5E5E5E5E5E5E5E5E5E5E5E5E5E5E5E561
:2001FE00E5E5E5E5E5E5E5E5E5E5E5E5E5E5E5E5E5E5E5E5E5E5E5E5E5E5E5E5E5E5E5E541
:00000001FF
