:20000000317A0321A601CD9B013E0432F7013AF7014FCD1BA23E0132F9013E0032F8013A7C
:20002000F9014FCD1EA23AF8014FCD21A201FB01CD24A2CD2AA23AF801FE3FCA45013C32C1
:20004000F801C326013AF901FEFFCA79013C32F9013E2E4FCD09F03AFA013CFE50CA66016F
:2000600032FA01C31A01AF32FA013E0D4FCD09F03E0A4FCD09F0C31A01AF32FA013AF701F0
:200080003CFE08CA920132F70121E901CD9B01C30E0121CF01CD9B01C333F07EA7C84FCD08
:2000A00009F023C39B010D0A0A466F726D6174696572652034207669727475656C6C652026
:2000C0004469736B0D0A4469736B20310D0A000D0A466F726D6174696572756E672062659A
:1700E000656E6465740D0D0A000D0A6E657874204469736B0D0A003D
:2000F700E5E5E5E5E5E5E5E5E5E5E5E5E5E5E5E5E5E5E5E5E5E5E5E5E5E5E5E5E5E5E5E549
:20011700E5E5E5E5E5E5E5E5E5E5E5E5E5E5E5E5E5E5E5E5E5E5E5E5E5E5E5E5E5E5E5E528
:20013700E5E5E5E5E5E5E5E5E5E5E5E5E5E5E5E5E5E5E5E5E5E5E5E5E5E5E5E5E5E5E5E508
:20015700E5E5E5E5E5E5E5E5E5E5E5E5E5E5E5E5E5E5E5E5E5E5E5E5E5E5E5E5E5E5E5E5E8
:00000001FF
