:2000000031A404CD0C01CDB301C333F0217502CD6A023E043221033A21034FCD1BE23E01A7
:200020003223033E003222033A23034FCD1EE22125033A210377233A230377233A22037746
:200040003A22034FCD21E2012503CD24E2CD2AE23A2203FE3FCA5F013C322203C32F013AC7
:200060002303FEFFCA93013C3223033E2E4FCD09F03A24033CFE50CA8001322403C3230174
:20008000AF3224033E0D4FCD09F03E0A4FCD09F0C32301AF3224033A21033CFE08CAAC0195
:2000A000322103211303CD6A02C3170121C702CD6A02C9219E02CD6A023E043221033A21C6
:2000C000034FCD1BE23E013223033E003222033A23034FCD1EE23A22034FCD21E2012503B5
:2000E000CD24E2CD27E22125033A2103BEC26302233A2303BEC26302233A2203BEC26302FC
:200100003A2203FE3FCA0F023C322203C3D6013A2303FEFFCA43023C3223033E2E4FCD09AA
:20012000F03A24033CFE50CA3002322403C3CA01AF3224033E0D4FCD09F03E0A4FCD09F03C
:20014000C3CA01AF3224033A21033CFE08CA5C02322103211303CD6A02C3BE0121E102CD28
:200160006A02C921FB02CD6A02C97EA7C84FCD09F023C36A020D0A0A466F726D617469657E
:2001800072652034207669727475656C6C65204469736B0D0A4469736B20310D0A000D0A6C
:2001A0000A5665726966697A6572652034207669727475656C6C65204469736B0D0A44695B
:2001C000736B20310D0A000D0A466F726D6174696572756E67206265656E6465740D0D0AB4
:2001E000000D0A5665726966697A696572656E206265656E6465740D0D0A000D0A466568B1
:200200006C6572206265696D205665726966790D0D0A000D0A6E657874204469736B0D0A8D
:0102200000DD
:20022100E5E5E5E5E5E5E5E5E5E5E5E5E5E5E5E5E5E5E5E5E5E5E5E5E5E5E5E5E5E5E5E51D
:20024100E5E5E5E5E5E5E5E5E5E5E5E5E5E5E5E5E5E5E5E5E5E5E5E5E5E5E5E5E5E5E5E5FD
:20026100E5E5E5E5E5E5E5E5E5E5E5E5E5E5E5E5E5E5E5E5E5E5E5E5E5E5E5E5E5E5E5E5DD
:20028100E5E5E5E5E5E5E5E5E5E5E5E5E5E5E5E5E5E5E5E5E5E5E5E5E5E5E5E5E5E5E5E5BD
:00000001FF
